{
  "contractName": "MasoomContract",
  "abi": [
    {
      "constant": true,
      "inputs": [
        {
          "name": "",
          "type": "address"
        }
      ],
      "name": "voterDetails",
      "outputs": [
        {
          "name": "voterAddress",
          "type": "address"
        },
        {
          "name": "voterId",
          "type": "uint256"
        },
        {
          "name": "hasVoted",
          "type": "bool"
        },
        {
          "name": "isVerified",
          "type": "bool"
        }
      ],
      "payable": false,
      "stateMutability": "view",
      "type": "function"
    },
    {
      "constant": true,
      "inputs": [
        {
          "name": "",
          "type": "uint256"
        }
      ],
      "name": "candidateDetails",
      "outputs": [
        {
          "name": "voteCount",
          "type": "uint256"
        },
        {
          "name": "candidateId",
          "type": "uint256"
        }
      ],
      "payable": false,
      "stateMutability": "view",
      "type": "function"
    },
    {
      "constant": true,
      "inputs": [],
      "name": "owner",
      "outputs": [
        {
          "name": "",
          "type": "address"
        }
      ],
      "payable": false,
      "stateMutability": "view",
      "type": "function"
    },
    {
      "constant": true,
      "inputs": [
        {
          "name": "",
          "type": "uint256"
        }
      ],
      "name": "voterIdMapping",
      "outputs": [
        {
          "name": "voterAddress",
          "type": "address"
        },
        {
          "name": "voterId",
          "type": "uint256"
        },
        {
          "name": "hasVoted",
          "type": "bool"
        },
        {
          "name": "isVerified",
          "type": "bool"
        }
      ],
      "payable": false,
      "stateMutability": "view",
      "type": "function"
    },
    {
      "constant": true,
      "inputs": [
        {
          "name": "",
          "type": "uint256"
        }
      ],
      "name": "voters",
      "outputs": [
        {
          "name": "",
          "type": "address"
        }
      ],
      "payable": false,
      "stateMutability": "view",
      "type": "function"
    },
    {
      "inputs": [],
      "payable": false,
      "stateMutability": "nonpayable",
      "type": "constructor"
    },
    {
      "constant": true,
      "inputs": [],
      "name": "getOwner",
      "outputs": [
        {
          "name": "",
          "type": "address"
        }
      ],
      "payable": false,
      "stateMutability": "view",
      "type": "function"
    },
    {
      "constant": false,
      "inputs": [
        {
          "name": "_candidateId",
          "type": "uint256"
        }
      ],
      "name": "addCandidate",
      "outputs": [],
      "payable": false,
      "stateMutability": "nonpayable",
      "type": "function"
    },
    {
      "constant": true,
      "inputs": [],
      "name": "getCandidateNumber",
      "outputs": [
        {
          "name": "",
          "type": "uint256"
        }
      ],
      "payable": false,
      "stateMutability": "view",
      "type": "function"
    },
    {
      "constant": true,
      "inputs": [
        {
          "name": "_voterId",
          "type": "uint256"
        }
      ],
      "name": "getVoterById",
      "outputs": [
        {
          "name": "voterAddress",
          "type": "address"
        },
        {
          "name": "hasVoted",
          "type": "bool"
        },
        {
          "name": "isVerified",
          "type": "bool"
        }
      ],
      "payable": false,
      "stateMutability": "view",
      "type": "function"
    },
    {
      "constant": false,
      "inputs": [
        {
          "name": "_voterId",
          "type": "uint256"
        }
      ],
      "name": "requestVoter",
      "outputs": [],
      "payable": false,
      "stateMutability": "nonpayable",
      "type": "function"
    },
    {
      "constant": true,
      "inputs": [],
      "name": "getVoterCount",
      "outputs": [
        {
          "name": "",
          "type": "uint256"
        }
      ],
      "payable": false,
      "stateMutability": "view",
      "type": "function"
    },
    {
      "constant": true,
      "inputs": [],
      "name": "getVoters",
      "outputs": [
        {
          "name": "",
          "type": "address[]"
        }
      ],
      "payable": false,
      "stateMutability": "view",
      "type": "function"
    },
    {
      "constant": false,
      "inputs": [
        {
          "name": "_voterId",
          "type": "uint256"
        }
      ],
      "name": "verifyVoter",
      "outputs": [],
      "payable": false,
      "stateMutability": "nonpayable",
      "type": "function"
    },
    {
      "constant": false,
      "inputs": [
        {
          "name": "candidateId",
          "type": "uint256"
        }
      ],
      "name": "vote",
      "outputs": [],
      "payable": false,
      "stateMutability": "nonpayable",
      "type": "function"
    },
    {
      "constant": false,
      "inputs": [],
      "name": "startElection",
      "outputs": [],
      "payable": false,
      "stateMutability": "nonpayable",
      "type": "function"
    },
    {
      "constant": false,
      "inputs": [],
      "name": "endElection",
      "outputs": [],
      "payable": false,
      "stateMutability": "nonpayable",
      "type": "function"
    },
    {
      "constant": true,
      "inputs": [],
      "name": "getStart",
      "outputs": [
        {
          "name": "",
          "type": "bool"
        }
      ],
      "payable": false,
      "stateMutability": "view",
      "type": "function"
    },
    {
      "constant": true,
      "inputs": [],
      "name": "getEnd",
      "outputs": [
        {
          "name": "",
          "type": "bool"
        }
      ],
      "payable": false,
      "stateMutability": "view",
      "type": "function"
    }
  ],
  "bytecode": "0x6060604052341561000f57600080fd5b336000806101000a81548173ffffffffffffffffffffffffffffffffffffffff021916908373ffffffffffffffffffffffffffffffffffffffff160217905550600060018190555060006002819055506000600360006101000a81548160ff0219169083151502179055506000600360016101000a81548160ff0219169083151502179055506112ae806100a46000396000f300606060405236156100fa576000357c0100000000000000000000000000000000000000000000000000000000900463ffffffff1680630121b93f146100ff57806311174a2914610122578063364dff251461014b5780635938750d1461017457806359f784681461020a5780636247e5321461021f57806362d73eb81461025d578063752ecc5914610272578063893d20e8146102eb5780638da5cb5b146103405780639f05a36d14610395578063a0bd43e5146103c2578063a6e2eda1146103e5578063c5292c6714610408578063c92411ee14610435578063cdd72253146104b5578063da58c7d91461051f578063e844d09714610582575b600080fd5b341561010a57600080fd5b61012060048080359060200190919050506105a5565b005b341561012d57600080fd5b610135610818565b6040518082815260200191505060405180910390f35b341561015657600080fd5b61015e610822565b6040518082815260200191505060405180910390f35b341561017f57600080fd5b6101ab600480803573ffffffffffffffffffffffffffffffffffffffff1690602001909190505061082c565b604051808573ffffffffffffffffffffffffffffffffffffffff1673ffffffffffffffffffffffffffffffffffffffff168152602001848152602001831515151581526020018215151515815260200194505050505060405180910390f35b341561021557600080fd5b61021d610896565b005b341561022a57600080fd5b6102406004808035906020019091905050610929565b604051808381526020018281526020019250505060405180910390f35b341561026857600080fd5b61027061094d565b005b341561027d57600080fd5b61029360048080359060200190919050506109e0565b604051808473ffffffffffffffffffffffffffffffffffffffff1673ffffffffffffffffffffffffffffffffffffffff1681526020018315151515815260200182151515158152602001935050505060405180910390f35b34156102f657600080fd5b6102fe610ac1565b604051808273ffffffffffffffffffffffffffffffffffffffff1673ffffffffffffffffffffffffffffffffffffffff16815260200191505060405180910390f35b341561034b57600080fd5b610353610aea565b604051808273ffffffffffffffffffffffffffffffffffffffff1673ffffffffffffffffffffffffffffffffffffffff16815260200191505060405180910390f35b34156103a057600080fd5b6103a8610b0f565b604051808215151515815260200191505060405180910390f35b34156103cd57600080fd5b6103e36004808035906020019091905050610b26565b005b34156103f057600080fd5b6104066004808035906020019091905050610c44565b005b341561041357600080fd5b61041b610e80565b604051808215151515815260200191505060405180910390f35b341561044057600080fd5b6104566004808035906020019091905050610e97565b604051808573ffffffffffffffffffffffffffffffffffffffff1673ffffffffffffffffffffffffffffffffffffffff168152602001848152602001831515151581526020018215151515815260200194505050505060405180910390f35b34156104c057600080fd5b6104c8610f01565b6040518080602001828103825283818151815260200191508051906020019060200280838360005b8381101561050b5780820151818401526020810190506104f0565b505050509050019250505060405180910390f35b341561052a57600080fd5b6105406004808035906020019091905050610f95565b604051808273ffffffffffffffffffffffffffffffffffffffff1673ffffffffffffffffffffffffffffffffffffffff16815260200191505060405180910390f35b341561058d57600080fd5b6105a36004808035906020019091905050610fd4565b005b60001515600660003373ffffffffffffffffffffffffffffffffffffffff1673ffffffffffffffffffffffffffffffffffffffff16815260200190815260200160002060020160009054906101000a900460ff16151514151561060757600080fd5b60011515600660003373ffffffffffffffffffffffffffffffffffffffff1673ffffffffffffffffffffffffffffffffffffffff16815260200190815260200160002060020160019054906101000a900460ff16151514151561066957600080fd5b60011515600360009054906101000a900460ff16151514151561068b57600080fd5b60001515600360019054906101000a900460ff1615151415156106ad57600080fd5b600160046000838152602001908152602001600020600001600082825401925050819055506004600082815260200190815260200160002060020180548060010182816106fa91906110d1565b9160005260206000209001600033909190916101000a81548173ffffffffffffffffffffffffffffffffffffffff021916908373ffffffffffffffffffffffffffffffffffffffff160217905550506001600660003373ffffffffffffffffffffffffffffffffffffffff1673ffffffffffffffffffffffffffffffffffffffff16815260200190815260200160002060020160006101000a81548160ff021916908315150217905550600160076000600660003373ffffffffffffffffffffffffffffffffffffffff1673ffffffffffffffffffffffffffffffffffffffff16815260200190815260200160002060010154815260200190815260200160002060020160006101000a81548160ff02191690831515021790555050565b6000600254905090565b6000600154905090565b60066020528060005260406000206000915090508060000160009054906101000a900473ffffffffffffffffffffffffffffffffffffffff16908060010154908060020160009054906101000a900460ff16908060020160019054906101000a900460ff16905084565b6000809054906101000a900473ffffffffffffffffffffffffffffffffffffffff1673ffffffffffffffffffffffffffffffffffffffff163373ffffffffffffffffffffffffffffffffffffffff161415156108f157600080fd5b6001600360016101000a81548160ff0219169083151502179055506000600360006101000a81548160ff021916908315150217905550565b60046020528060005260406000206000915090508060000154908060010154905082565b6000809054906101000a900473ffffffffffffffffffffffffffffffffffffffff1673ffffffffffffffffffffffffffffffffffffffff163373ffffffffffffffffffffffffffffffffffffffff161415156109a857600080fd5b6001600360006101000a81548160ff0219169083151502179055506000600360016101000a81548160ff021916908315150217905550565b60008060006109ed6110fd565b60076000868152602001908152602001600020608060405190810160405290816000820160009054906101000a900473ffffffffffffffffffffffffffffffffffffffff1673ffffffffffffffffffffffffffffffffffffffff1673ffffffffffffffffffffffffffffffffffffffff168152602001600182015481526020016002820160009054906101000a900460ff161515151581526020016002820160019054906101000a900460ff1615151515815250509050806000015181604001518260600151935093509350509193909250565b60008060009054906101000a900473ffffffffffffffffffffffffffffffffffffffff16905090565b6000809054906101000a900473ffffffffffffffffffffffffffffffffffffffff1681565b6000600360019054906101000a900460ff16905090565b6000809054906101000a900473ffffffffffffffffffffffffffffffffffffffff1673ffffffffffffffffffffffffffffffffffffffff163373ffffffffffffffffffffffffffffffffffffffff16141515610b8157600080fd5b60016007600083815260200190815260200160002060020160016101000a81548160ff0219169083151502179055506001600660006007600085815260200190815260200160002060000160009054906101000a900473ffffffffffffffffffffffffffffffffffffffff1673ffffffffffffffffffffffffffffffffffffffff1673ffffffffffffffffffffffffffffffffffffffff16815260200190815260200160002060020160016101000a81548160ff02191690831515021790555050565b610c4c6110fd565b6080604051908101604052803373ffffffffffffffffffffffffffffffffffffffff16815260200183815260200160001515815260200160001515815250905080600660003373ffffffffffffffffffffffffffffffffffffffff1673ffffffffffffffffffffffffffffffffffffffff16815260200190815260200160002060008201518160000160006101000a81548173ffffffffffffffffffffffffffffffffffffffff021916908373ffffffffffffffffffffffffffffffffffffffff1602179055506020820151816001015560408201518160020160006101000a81548160ff02191690831515021790555060608201518160020160016101000a81548160ff021916908315150217905550905050806007600084815260200190815260200160002060008201518160000160006101000a81548173ffffffffffffffffffffffffffffffffffffffff021916908373ffffffffffffffffffffffffffffffffffffffff1602179055506020820151816001015560408201518160020160006101000a81548160ff02191690831515021790555060608201518160020160016101000a81548160ff02191690831515021790555090505060058054806001018281610e1c91906110d1565b9160005260206000209001600033909190916101000a81548173ffffffffffffffffffffffffffffffffffffffff021916908373ffffffffffffffffffffffffffffffffffffffff1602179055505060016002600082825401925050819055505050565b6000600360009054906101000a900460ff16905090565b60076020528060005260406000206000915090508060000160009054906101000a900473ffffffffffffffffffffffffffffffffffffffff16908060010154908060020160009054906101000a900460ff16908060020160019054906101000a900460ff16905084565b610f09611140565b6005805480602002602001604051908101604052809291908181526020018280548015610f8b57602002820191906000526020600020905b8160009054906101000a900473ffffffffffffffffffffffffffffffffffffffff1673ffffffffffffffffffffffffffffffffffffffff1681526020019060010190808311610f41575b5050505050905090565b600581815481101515610fa457fe5b90600052602060002090016000915054906101000a900473ffffffffffffffffffffffffffffffffffffffff1681565b610fdc611154565b6000809054906101000a900473ffffffffffffffffffffffffffffffffffffffff1673ffffffffffffffffffffffffffffffffffffffff163373ffffffffffffffffffffffffffffffffffffffff1614151561103757600080fd5b60606040519081016040528060008152602001838152602001606460405180591061105f5750595b908082528060200260200182016040525081525090508060046000848152602001908152602001600020600082015181600001556020820151816001015560408201518160020190805190602001906110b992919061117c565b50905050600180600082825401925050819055505050565b8154818355818115116110f8578183600052602060002091820191016110f79190611206565b5b505050565b608060405190810160405280600073ffffffffffffffffffffffffffffffffffffffff168152602001600081526020016000151581526020016000151581525090565b602060405190810160405280600081525090565b606060405190810160405280600081526020016000815260200161117661122b565b81525090565b8280548282559060005260206000209081019282156111f5579160200282015b828111156111f45782518260006101000a81548173ffffffffffffffffffffffffffffffffffffffff021916908373ffffffffffffffffffffffffffffffffffffffff1602179055509160200191906001019061119c565b5b509050611202919061123f565b5090565b61122891905b8082111561122457600081600090555060010161120c565b5090565b90565b602060405190810160405280600081525090565b61127f91905b8082111561127b57600081816101000a81549073ffffffffffffffffffffffffffffffffffffffff021916905550600101611245565b5090565b905600a165627a7a72305820870743eb6b0feb9e63aaab2470f6f9eba04c8f03f689f0544c39a08e6a3b002b0029",
  "source": "// SPDX-License-Identifier: GPL-3.0\npragma solidity ^0.4.17;\n// pragma experimental ABIEncoderV2;\n\ncontract MasoomContract {\n    address public owner;\n    uint candidateCount;\n\n    uint voterCount;\n\n    bool start;\n    bool end;\n\n    // Constructor\n    function MasoomContract() public {\n        owner = msg.sender;\n        candidateCount = 0;\n        voterCount = 0;\n        start = false;\n        end = false;\n    }\n\n    function getOwner() public view returns (address) {\n        return owner;\n    }\n\n    // Only Admin can access\n    modifier onlyAdmin() {\n        require(msg.sender == owner);\n        _;\n    }\n\n    struct Candidate {\n        uint voteCount;\n        uint candidateId;\n        address[] voterAddresses;\n    }\n\n    mapping(uint => Candidate) public candidateDetails;\n\n    // Only admin can add candidate\n    function addCandidate(uint _candidateId) public onlyAdmin {\n        Candidate memory newCandidate = Candidate({\n            voteCount: 0,\n            candidateId: _candidateId,\n            voterAddresses: new address[](100) // as empty dynamic array\n        });\n\n        candidateDetails[_candidateId] = newCandidate;\n        candidateCount += 1;\n    }\n\n    // get total number of candidates\n    function getCandidateNumber() public view returns (uint) {\n        return candidateCount;\n    }\n\n    struct Voter {\n        address voterAddress;\n        uint voterId;\n        bool hasVoted;\n        bool isVerified;\n    }\n\n    address[] public voters;\n    mapping(address => Voter) public voterDetails;\n    mapping(uint => Voter) public voterIdMapping;\n\n    // Get specific voter details by voterId\n    function getVoterById(\n        uint _voterId\n    )\n        public\n        view\n        returns (address voterAddress, bool hasVoted, bool isVerified)\n    {\n        Voter memory voter = voterIdMapping[_voterId];\n        return (voter.voterAddress, voter.hasVoted, voter.isVerified);\n    }\n\n    // request to be added as voter\n    function requestVoter(uint _voterId) public {\n        Voter memory newVoter = Voter({\n            voterAddress: msg.sender,\n            voterId: _voterId,\n            hasVoted: false,\n            isVerified: false\n        });\n\n        voterDetails[msg.sender] = newVoter;\n        voterIdMapping[_voterId] = newVoter;\n        voters.push(msg.sender);\n        voterCount += 1;\n    }\n\n    // get total number of voters\n    function getVoterCount() public view returns (uint) {\n        return voterCount;\n    }\n    // get total number of voters\n    function getVoters() public view returns (address[] memory) {\n        return voters;\n    }\n\n    function verifyVoter(uint _voterId) public onlyAdmin {\n        voterIdMapping[_voterId].isVerified = true;\n        voterDetails[voterIdMapping[_voterId].voterAddress].isVerified = true;\n    }\n\n    function vote(uint candidateId) public {\n        require(voterDetails[msg.sender].hasVoted == false);\n        require(voterDetails[msg.sender].isVerified == true);\n        require(start == true);\n        require(end == false);\n\n        candidateDetails[candidateId].voteCount += 1;\n        candidateDetails[candidateId].voterAddresses.push(msg.sender);\n        voterDetails[msg.sender].hasVoted = true;\n        voterIdMapping[voterDetails[msg.sender].voterId].hasVoted = true;\n    }\n\n    function startElection() public onlyAdmin {\n        start = true;\n        end = false;\n    }\n\n    function endElection() public onlyAdmin {\n        end = true;\n        start = false;\n    }\n\n    function getStart() public view returns (bool) {\n        return start;\n    }\n\n    function getEnd() public view returns (bool) {\n        return end;\n    }\n}\n",
  "sourcePath": "/home/amine/All/blockchain/VoteChain/contracts/MasoomContract.sol",
  "compiler": {
    "name": "solc",
    "version": "0.4.17+commit.bdeb9e52.Emscripten.clang"
  },
  "schemaVersion": "3.4.16",
  "updatedAt": "2025-02-05T18:09:02.546Z",
  "networkType": "ethereum",
  "devdoc": {
    "methods": {}
  },
  "userdoc": {
    "methods": {}
  }
}